:020000040000FA
:060000000201070222C507
:03002B000226F1B9
:03003B0002271683
:030043000226C9C9
:0300530002233B4A
:1000830002211BE5C754F84401F5C779012200009A
:100093000080FB120086B900030200F1E4792178A5
:1000A30008B800028004F709D8FCE479297802B87B
:1000B30000028004F709D8FCE4900401783A791827
:1000C3008002F0A3D8FCD9FA7A3A7B1B90013778E7
:1000D3000479048015E493A3AD82AE838A828B8373
:1000E300F0A3AA82AB838D828E83D8E9D9E7758288
:1000F300887583DC7403120119758291758300740A
:100103000012011975D00075813F75180175190426
:10011300759F00020096C09FF59FE473D09F22D085
:1001230083D082C09FE493C0E0740193C0E0740263
:1001330093F59F2215090000000000000000000055
:100143000000000000000000000005120800080085
:10015300020A00020106424C454252444700000095
:1001630000000000000000000000004C04000058E4
:1001730004FF0000B4000028002800283075A00008
:10018300A000A000A00000080008E001F00010009B
:10019300100010001000100010005000500050001C
:1001A30010001000D0070000000000000F00010045
:1001B3000500307507001000010081FF00000000FA
:1001C300FFFFFF8C06AA069206CE06FF0202020874
:1001D300025000A0000000E80302158201000005A0
:1001E30082021982010000D21B021F820100005506
:1001F30004021982010000D31B0221820100006B5B
:1002030004021982010000D41B0223820100006D45
:1002130004021982010000D51B0225820800006E2A
:1002230004021982010000D61B022782010000D7B5
:100233001BFF0100FF200215820100000882021942
:10024300820100003B1C0229820000000000022FF3
:10025300820300009C041700520D520D520D520DE3
:10026300520D520D520D520D520D520D520D520D93
:10027300520DF20F0410EC0F0202020202020202FC
:1002830002010D00000010010215820100000B8223
:100293000219820100007E1C023982010000B908A4
:1002A3000219820100007F1C02378201000056817F
:1002B300021982010000801C0235820100002C819A
:1002C300021982010000811C023382010000C780F1
:1002D300021982010000821C023182010000B580F4
:1002E300021982010000831C022D82010000A380F9
:1002F300021982010000841C024982010000D98096
:10030300021982010000851C022B82010000488132
:10031300021982010000861C021D82010000871C55
:10032300010577100A0AA211FFFFFF0001307503D0
:1003330002010600000000000000000000000000B1
:10034300000000000000000000000000000000FFAB
:10035300FF0600800CE8030A4D6F746F7220436F31
:100363006E74726F6C00000243686172616374653E
:100373007269737469632032000843686172616350
:100383007465726973746963203300104368617222
:10039300616374657269737469632034000243682E
:1003A30061726163746572697374696320350002F5
:1003B30015820100000E820219820100005D1D02F8
:1003C3003F82030000151B021B820100005E1D0219
:1003D30019820100006D1D0241820100001D1B02F4
:1003E3001B820100006E1D0219820100007F1D02A5
:1003F30043820200001E1B021B82010000801D02BB
:100403001982010000911D024582000000321B0287
:100413002F82030000331B021B82010000921D0286
:100423001982010000A31D024782040000351B024C
:100433001B82010000A41D1201227DCB02120122A6
:100443009DCD0212012251CF0212012254CF02127A
:1004530001227FD002120122A9D102120122FCD172
:1004630002120122F0D30212012225B70312012244
:1004730038B70312012269B703120122A3B703128B
:100483000122FCB70312012243B8031201228BB8E5
:1004930003120122BAB803120122E9B8031201229E
:1004A30020B90312012267B90312012280B9031292
:1004B3000122D5B903120122EEB9031201223CBA7B
:1004C3000312012276BA03120122BED402120122C0
:1004D300C1D502120122FAD5021201221DD602123F
:1004E30001222FD6021201226DD602120122E9D671
:1004F30002120122B1D702120122D3D70212012222
:100503006AD802120122BCD802120122EDD80212CB
:100513000122FAD80212012264D902120122BBD9A4
:1005230002120122BED902120122F7D902120122BC
:10053300FAD90212012204DA0212012258DA021253
:10054300012299DA02120122CCDA0212012209DB1A
:10055300021201220BDC02120122AFDC0212012281
:1005630018DD0212012256DD0212012274AB0312BE
:1005730001229CAB03120122C9AB0312012201AC7D
:10058300031201225FAC03120122ABAC031201225E
:1005930012AD0312012252AD031201228FAD0312D9
:1005A3000122BDAD0312012267AE0312012271AE17
:1005B300031201227EAE03120122B1AE0312012205
:1005C300BDAE03120122D5AE03120122DFAE031228
:1005D3000122F9D70312012207D8031201221FD8DF
:1005E3000312012236D803120122C3CB01120122C6
:1005F3006DCC0112012280CD01120122FCCD01122A
:1006030001221ACF0112012256CF01120122F1CF8A
:1006130001120122D5D001120122A1D1011201221E
:100623002FD301120122A0D3011201225AD40112A5
:1006330001224CD5011201228CD50112012240D690
:100643000112012272D60112012268D8011201227D
:10065300AAD801120122C8D8011201222ED90112EF
:100663000122FDD901120122C1DA01120122E0DCCB
:100673000112012216E50212012200E602120122F2
:10068300ABE602120122FCE602120122ACE70212DF
:1006930001221DE80212012202E90212012236E9B7
:1006A300021201222FEA021201226CEA0212012233
:1006B30048EB0212012287EB02120122A3EB021282
:1006C3000122DBD0031201225FD1031201228AD15E
:1006D30003120122A4D2031201226DAF03120122DD
:1006E30083AF03120122A1AF03120122B2B003129E
:1006F3000122BCB003120122E7B103120122DEB2D0
:10070300031201224BB30312012250F802120122F9
:1007130080F902120122FAF9021201222AFA0212C4
:1007230001223DFA0212012287FA021201224AFC37
:1007330002120122519601120122DD9601120122B9
:100743004198011201224D98011201228898011249
:100753000122F79801120122009A01120122099B3A
:1007630001120122D09B011201222D9D01120122AF
:100773004B9D01120122689D01120122159E011257
:100783000122929E01120122BA9E0112012284A12A
:100793000112012289A101120122A2A30112012245
:1007A300F0A30112012260A4011201229EA40112EE
:1007B30001227AA5011201223AA60112012286A67C
:1007C3000112012289A601120122CDA601120122E2
:1007D30015A70112012254A70112012276A70112C3
:1007E3000122AAA7011201220DA801120122498B9D
:1007F30003120122578B03120122AA8B0312012237
:10080300C98B031201220E8C03120122528D031293
:100813000122ED8D03120122318E031201225B8E20
:1008230003120122CA8E03120122108F0312012226
:10083300878F031201223890031201229F2700128F
:1008430001224028001201229C280012012259296A
:1008530000120122752A00120122A72A0012012286
:10086300D62A00120122832C00120122FA2E001232
:1008730001226A31001201225C3200120122553337
:10088300001201225C3500120122503800120122AD
:100893007F3900120122833B00120122933C001294
:1008A3000122223E00120122133F00120122613F66
:1008B30000120122D03F00120122F43F0012012254
:1008C300454000120122E64400120122E7450012CE
:1008D30001224846001201227346001201223947C1
:1008E30000120122579E03120122619E031201226C
:1008F300A69E03120122BA9E031201224A9F0312EB
:100903000122839F03120122BE9F03120122E79F4C
:10091300031201223BA00312012250A00312012261
:1009230072A00312012287A0031201229BA00312CB
:100933000122B0A003120122EAA00312012216A190
:10094300031201224EA103120122F7A10312012275
:1009530022A20312012265A2031201228FA2031213
:100963000122BAA203120122E5D6031201221CA41A
:1009730002120122FFA4021201227AA5021201220D
:10098300B5A50212012206A70212012294A70212A0
:10099300012226AA02120122D8AA02120122E4ABE2
:1009A3000212012257AD02120122B0AD021201223E
:1009B300E2A20312012225A303120122A9A3031217
:1009C300012280A6031201226FCC0312012221CD42
:1009D300031201221DCE031201225CCE0312012257
:1009E300B6CE0312012219FE021201227CFE02126C
:1009F300012219FF021201224EFF021201227EFF81
:100A030002120122B9FF02120122D9FF02120122AE
:100A13000D95031201229995031201225896031290
:100A230001227097031201228A9903120122888DF1
:100A330002120122AD8D021201227A8E02120122CC
:100A43004E8F02120122BB8F02120122FB8F021270
:100A53000122979002120122CB9102120122A69247
:100A63000212012205930212012291930212012222
:100A7300FF93021201228B9402120122D1940212DB
:100A83000122439502120122D59502120122769684
:100A930002120122969602120122DE96021201220E
:100AA3002797021201224397021201226997021229
:100AB3000122E39702120122F19702120122809888
:100AC30002120122E99802120122C19903120122A2
:100AD300469A03120122889A031201226C9B031285
:100AE3000122D99B031201221D9C03120122619C46
:100AF300031201228E9C03120122B69C03120122CF
:100B0300EE9C031201222C9D03120122539D03121A
:100B13000122CD9D03120122179E0312012265BA01
:100B23000112012204BC011201223CBE0112012266
:100B330090BE01120122BBBE0112012297BF011216
:100B43000122C7BF01120122F6BF0112012209C00F
:100B5300011201224AC00112012277C001120122AF
:100B6300C5C00112012201C10112012246C10112B5
:100B7300012293C1011201220DC2011201224EC4AE
:100B83000112012238C60112012274C60112012288
:100B930003C80112012248C801120122BBC8011275
:100BA300012210C9011201221AC90112012245CAE8
:100BB3000112012270CA011201228FCB01120122FC
:100BC300A0CB0112012241B802120122BAB80212CB
:100BD300012274BE021201227FBF0212012228C128
:100BE30002120122B6C102120122926300120122F3
:100BF300136400120122406400120122896400126E
:100C030001228A6500120122CE65001201220466C8
:100C130000120122806700120122026800120122E1
:100C23001D68001201228E68001201224B69001216
:100C330001220E6A001201229C6A00120122536BE8
:100C430000120122666B00120122FF6B00120122C7
:100C5300966C00120122BD6C00120122266D001257
:100C63000122706D00120122BE6D00120122656E19
:100C730000120122036F00120122906F0012012261
:100C8300017000120122487000120122A0700012AC
:100C93000122D27000120122937100120122967276
:100CA30000120122DF7200120122FC7200120122E3
:100CB3001B73001201224E740012012205750012EB
:100CC30001222A75001201223F7500120122AF751D
:100CD30000120122F0750012012214770012012282
:100CE300957700120122E0C1021201222BC20212E7
:100CF300012237C2021201220BC30212012222C3B4
:100D0300021201225FC30212012290C302120122C6
:100D1300C8C3021201221EC40212012234C40212E9
:100D2300012270C40212012283C402120122AAC446
:100D330002120122DEC40212012204C6021201229F
:100D43004EC7021201224AC80212012260C90212CE
:100D53000122F87F001201227AEB01120122A9EB92
:100D630001120122FBEE0112012252F001120122B3
:100D730011F10112012278F40112012264F501122A
:100D83000122B6F501120122D0F50112012202F669
:100D9300011201220DF60112012216F6011201229F
:100DA300C8F60112012298F701120122DFF701129E
:100DB300012245F801120122B7F801120122E5A828
:100DC3000112012225AC011201222BAC01120122D6
:100DD300EAB2011201220FB70112012205BE03126A
:100DE3000122E2BE0312012226BF0312012260BFC9
:100DF30003120122F8BF0312012267C0031201226A
:100E030070C0031201227CC00312012296C0031298
:100E13000122C0C003120122F0C00312012232A733
:100E2300031201223FA70312012259A70312012231
:100E33008CA703120122CAA7031201222FA80312AF
:100E4300012244A8031201224FA8031201225CA825
:100E53000312012273A80312012281A803120122A3
:100E63008CA80312012298A803120122A7A8031237
:100E73000122B2A803120122D5A80312012279A9E3
:100E83000312012289A903120122A3A90312012239
:100E9300C0A903120122DBA90312012200AA031233
:100EA30001220BAA0312012220AA0312012234AA4F
:100EB3000312012295AA031201229BAA0312012203
:100EC300A1AA03120122A7AA03120122BFAA031295
:100ED3000122F2AA031201220580021201229C8040
:100EE30002120122348102120122248202120122FF
:100EF3005B82021201226E8202120122DC82021242
:100F030001227784021201229E840212012240856B
:100F13000212012275850212012286850212012224
:100F2300FF85021201222086021201223886021254
:100F33000122908702120122998902120122E98B70
:100F430002120122EC8C021201223B8D02120122B9
:100F5300EDDC01120122EADD01120122D5DE0112CC
:100F63000122DFDE0112012201DF011201220DDF66
:100F7300011201225FE0011201228EE0011201221F
:100F8300BEE10112012200E2011201222CE301124F
:100F9300012202E40112012254E401120122B3E40A
:100FA30001120122EAE40112012225E501120122C4
:100FB300C0E801120122D9E8011201225BE9011202
:100FC300012269E901120122BEE901120122CCE9E1
:100FD3000112012239EA01120122ABEA01120122B4
:100FE300F1EA011201220C99021201222E99021236
:100FF3000122189B02120122BD9E0212012200A0AF
:1010030002120122DAA002120122D3D20312012218
:10101300F8D20312012269D303120122CB77001203
:101023000122D47700120122DD77001201220E790A
:10103300001201222D7B00120122637B0012012288
:101043009D7B00120122D37B001201220D7C001232
:101053000122417C001201226D7C00120122B67C28
:1010630000120122F07C00120122387D00120122BD
:101073008E7D00120122C37D001201221E7E00120A
:101083000122587E00120122A97E00120122DF7E76
:1010930000120122197F00120122477F0012012250
:1010A3006A7F0012012277D903120122A3D9031206
:1010B3000122FED90312012208DA0312012218DAEF
:1010C300031201224A90031201227190031201229A
:1010D300DEBA0312012255BB0312012223BD031200
:1010E300012203DC03120122A547001201223A491F
:1010F30000120122B54900120122614A00120122A5
:10110300044B001201229C4B0012012234500012A6
:101113000122C650001201220252001201226C5217
:1011230000120122205300120122D655001201227F
:101133001056001201227A5600120122D7560012CD
:1011430001223457001201229157001201227C58C8
:1011530000120122C258001201220D59001201226D
:10116300305900120122925A00120122AD5A001284
:101173000122355C00120122745C00120122B45C6E
:1011830000120122075D00120122285D00120122D4
:10119300665D001201228C5F00120122CD5F0012F6
:1011A3000122646000120122106100120122AB616E
:1011B300001201221D62001201225E63001201224D
:1011C300A885031201224E8603120122938703127C
:1011D30001221C8803120122098903120122488972
:1011E30003120122B28903120122208A031201226F
:1011F300EFFF01120122FEC603120122C9C9031225
:1012030001224FDD03120122C6D803120122D6D8D0
:1012130003120122EDD80312012269D9031201221C
:101223001EC103120122C6C10312012208C4031204
:101233000122FB7F00120122E7FF0212012206FABC
:101243000112012203FC0112012289FC0112012275
:101253008FFD0112012253FE01120122D0FE011261
:1012630001223BFF011201223EFF011201224CFF2A
:101273000112012269FF0112012292FF01120122D0
:10128300BBFF01120122C9FF01120122E1FF01127A
:101293000122CBDA0312012244DB0312012263DBB6
:1012A30003120122C3D503120122F4D50312012232
:1012B3001ED6031201227CD6031201227CDD021208
:1012C300012291DD02120122EDDD0212012258DE1C
:1012D30002120122A0DE0212012212DF02120122F7
:1012E3003BDF0212012249DF02120122ABDF0212AD
:1012F3000122E9DF0212012204E002120122ABE023
:101303000212012254E102120122D7E10212012248
:1013130010E2021201229BE202120122F2E2021205
:10132300012250E30212012262E30212012288E346
:101333000212012291E302120122E2E402120122CB
:1013430022DA03120122E1CE0312012248CF031253
:10135300012205D00312012283D00312012255B3C7
:101363000312012288B303120122BAB40312012229
:10137300FEB403120122DAB50312012289D4031247
:10138300012267D503120122D7C9031201221CCA05
:101393000312012262CA031201222BCC031201227F
:1013A30073DB031201228EDB031201229EDB031285
:1013B300012259AE0212012235AF021201227CAF83
:1013C30002120122B9AF0212012227B00212012236
:1013D30081B002120122F1B002120122C1B1021244
:1013E3000122B0B20212012227B302120122C3B4B6
:1013F3000212012250B502120122C3B502120122C8
:101403003FB60212012256B6021201227BB7021224
:101413000122D5B70212012200800312012220808B
:101423000312012226810312012272810312012277
:10143300928103120122E5810312012252820312D7
:101443000122988203120122FC82031201224B82A1
:10145300011201227887011201227B8A01120122E3
:10146300A48A01120122CD8A011201227F8B01126B
:101473000122688D01120122B38E01120122CC8E4A
:10148300011201220394011201223C940112012250
:1014930080940112012291950112012223C40312A7
:1014A300012292C40312012239C60312012204EC61
:1014B300021201221CEC0212012271EC021201221F
:1014C300CBEE0212012236EF0212012265F0021264
:1014D3000122D5F002120122E8F0021201229EF14C
:1014E30002120122ECF1021201220EF20212012277
:1014F30045F202120122D5F202120122F2F2021285
:1015030001222EF402120122ECF40212012252F6FD
:10151300021201220FF802120122DDDC0312012262
:1015230023DD031201226EDD03E066701008A3E0E1
:1015330066700A08A3E066700408A3E06622C3E7A6
:10154300960809E7960809E7960809E79622C3E093
:101553009608A3E09608A3E09608A3E09622C008A5
:10156300C3E096F50808A3E096420808A3E0964274
:101573000808A3E09645087001D3D008220808089C
:10158300EAC0E0EBC0E086F0E7A4FA180986F0E7CA
:10159300A42AFA180986F0E7A42AFA180986F0E7BC
:1015A300A42AFA1986F0E7A4FBE5F02AFA190886BB
:1015B300F0E7A42BFBE5F03AFA190886F0E7A42B31
:1015C300FBE5F03AFA18180986F0E7A4C5F02BFBFF
:1015D300E43AFA1908E7C5F0C6A426F6E5F03BFBA2
:1015E300E43AFA1886F0E7A4F6E5F00826F6E43BB9
:1015F30008F6E43A08F6D0E0FBD0E0FA22E4CFC0E4
:10160300E0E4CEC0E0E4CDC0E0E4CCC0E075F0207F
:10161300E626F608E633F608E633F608E633F61868
:101623001818EC33FCED33FDEE33FEEF33FFC3EC60
:101633009709ED9709EE9709EF97191919400FFFCD
:10164300EC97FC09ED97FD09EE97FE191906D5F005
:10165300BFECF709EDF709EEF709EFF7191919D000
:10166300E0FCD0E0FDD0E0FED0E0FF2260160808E9
:1016730008C6C313C618C613C618C613C618C6139E
:10168300C6D5E0EA2270090808082260161818185F
:10169300C6C333C608C633C608C633C608C633C670
:1016A300D5E0EA22E627F60809E637F60809E63721
:1016B300F60809E637F622E026F608A3E036F60830
:1016C300A3E036F608A3E036F622E026F008A3E00E
:1016D30036F008A3E036F008A3E036F022C3E6971D
:1016E300F60809E697F60809E697F60809E697F675
:1016F30022C3E096F008A3E096F008A3E096F00872
:10170300A3E096F022E056F608A3E056F608A3E01D
:1017130056F608A3E056F622E056F008A3E056F08A
:1017230008A3E056F008A3E056F022E0F608A3E091
:10173300F608A3E0F608A3E0F622E6F008A3E6F035
:1017430008A3E6F008A3E6F022E0FAA3E0FBA3E097
:10175300FCA3E0FD22E0F8A3E0F9A3E0FAA3E0FB99
:1017630022E8F0A3E9F0A3EAF0A3EBF022CAC0E079
:10177300E6F0A308DAFAD0E0FA22CAC0E0E0A3C593
:1017830082CCC582C583CDC583F0A3C582CCC58277
:10179300C583CDC583DAE6D0E0CA22C3E498F8E472
:1017A30099F91217DF8026C3E49AFAE49BFBE92038
:1017B300E7E91217DFE498F8E499F922C3E498F80B
:1017C300E499F91217DFE498F8E499F9C3E49AFA73
:1017D300E49BFB22EB20E7CFE920E7E0B90010BB55
:1017E3000008E88AF084F8AAF022E4FBC8FA22EBA6
:1017F30070227B10C833C8C933C9335007C39AC397
:10180300DBF280069A50012ADBEAC833F4C8C933F5
:10181300F4C9FA2275F008E4C833C8C933C933C917
:101823009AC99B5004C92AC93BD5F0ECFBC833F4D1
:10183300C8E4C9FA22600D08C6A2E713C618C61386
:10184300C6D5E0F322600C08C6C313C618C613C678
:10185300D5E0F422700422600D18C6C333C608C64F
:1018630033C6D5E0F41822251810AF08F518400C3C
:1018730015198008F51840021519D2AF2200C0D0FF
:10188300251810AF08F518500C05198008F51850E5
:10189300020519D2AFD0D0222518F58210AF08F572
:1018A30018400C15198008F51840021519D2AF8598
:1018B3001983222518F582E43519F583222518F8B2
:1018C300E43519F9222518FAE43519FB222518FC09
:1018D300E43519FD22E4732518C582C0E0E5193407
:1018E300FFC583C0E0E518C3958224F810AF0885CF
:1018F30083198582188008858319858218D2AFCE13
:10190300F0A3E520F0A37808E608F0A3DEFAEFF0F1
:10191300A3E58124FAF8E608F0A3E608F0A3E608B5
:10192300F0A30808E608F0A3E608F0A315811581E3
:10193300D0E0FED0E0F8158115811581E8C0E0EE16
:10194300C0E0222518C582C0E0E51934FFC583C075
:10195300E0E518C3958224F910AF088583198582C1
:10196300188008858319858218D2AFCEF0A3E520AD
:10197300F0A37808E608F0A3DEFAEFF0A3E58124EC
:10198300FBF8E608F0A3E608F0A30808E608F0A3CE
:10199300E608F0A315811581D0E0FED0E0F81581AB
:1019A3001581E8C0E0EEC0E022851983851882E046
:1019B300A3FEE0A3F5207808E0A3F608DFFAE0A38E
:1019C300FFE0A3C0E0E0A3C0E0E0A3C0E0E0A3C069
:1019D300E0E0A3C0E010AF08858218858319800872
:1019E300858218858319D2AFD083D08202011F85E7
:1019F3001983851882E0A3FEE0A3F5207808E0A30D
:101A0300F608DFFAE0A3FFE0A3C0E0E0A3C0E0E054
:101A1300A3C0E0E0A3C0E010AF0885821885831956
:101A23008008858218858319D2AFD083D08222C0E3
:101A3300D02518C582C0E0E51934FFC583C0E0E5B1
:101A430018C3958224F310AF088583198582188003
:101A530008858319858218D2AFC8F0A3E9F0A3EAF9
:101A6300F0A3EBF0A37908E709F0A3D8FAECF0A30D
:101A7300EDF0A3EEF0A3EFF0A3D0E0F0A3D0E0F0FD
:101A8300A3D0E0F0A3E520F0A3E5F0F0A3228519AD
:101A930083851882E0C0E0A3E0F9A3E0FAA3E0FBAA
:101AA300A37808E0F608A3DFFAE0FCA3E0FDA3E0D7
:101AB300FEA3E0FFA3E0C0E0A3E0C0E0A3E0F5D015
:101AC300A3E0F520A3E0A3F5F010AF088583198503
:101AD30082188008858319858218D2AFD082D0837B
:101AE300D0E0F8D0E03274048006740280027401FE
:101AF300C0E0F40412189BD0E01217702274048023
:101B03000474028000CCC0E0EDC0E0E518C39CCCB7
:101B1300AD1950011D10AF068C188D1980068C1855
:101B23008D19D2AF12177DD0E0FDD0E0FC22D08317
:101B3300D082E9C0E0E493A3C386F0C5F095F0F941
:101B430008E493A386F0C5F095F0700BE493A3C368
:101B5300994005E9048002A3E475F002A42582F507
:101B630082E5F03583F583D0E0F9E493A3C0E0E4A4
:101B730093C0E022D083D082ECC0E0EDC0E0E493D8
:101B8300A3FCE493A3FDED4C600D121BC3EC24FFF7
:101B9300FCED34FFFD80EFE493A3FCE493A3FDEDA0
:101BA3004C600D121C02EC24FFFCED34FFFD80EFB2
:101BB300D0E0FDD0E0FCE493A3C0E0E493C0E022D6
:101BC300C0E0C3E49396087401939618400FE4931E
:101BD30066700808740193661870007019A3A3C394
:101BE300E49396087401939618A3A3400DD0E0D014
:101BF300E0D0E0021BB3A3A3A3A3A3A3D0E022C01E
:101C0300E0C0F088F0E493667008087401936618E6
:101C13007000A8F0A3A3700BD0F0D0E0D0E0D0E028
:0A1C2300021BB3A3A3D0F0D0E0220F
:101C300074F6121946EAFEEBFF8C088D09EE243487
:101C4000F8E43FF9E8FCE9FDEE2435121F6AFAEEEC
:101C50002437121F6AF88508F0A4C885F00A8509A0
:101C6000F0A4250AF9EA28F8E439F97A257B00126C
:101C700017DFEA8C828D83F0FA131313541FF8EEEA
:101C800028F8E43FF9E8245DF582E439F583E0C003
:101C9000E074075AF8D0E0B800028004C313D8FCFF
:101CA000A2E0EE50082434F582E43F801824361276
:101CB0001F6AF5F0EA84A8F0EE28F8E43FF9E8247A
:101CC00038F582E439F583E0F97F030219F274F7FD
:101CD000121946EAFEEBFFEE2434121F6AC0E0EE52
:101CE0002435F582E43FF583D0E0F08E828F83A324
:101CF000A3A3A3A3A3A3C082C0838E828F83A3A325
:101D0000A3A3A3121DD3D083D082E0C398F508A368
:101D1000E099F509EE247F121F6A6401705DEE24DC
:101D200080121DCD8E828F83A3A3A3A3A3A3A3128E
:101D3000210D8E828F83A3A3A3A3A3E0FAA3E0FBCC
:101D4000C3EA9CEB9D5010C3EC98ED99402DC3EA7B
:101D500098EB995026800EC3EA98EB994007C3ECA4
:101D600098ED9940167C467D06EEFAEFFB120C9238
:101D7000EE247FF582E43FF583E4F0AC08AD09EE94
:101D8000FAEFFB121C30E9F91226BB7F020219F2AE
:101D9000C082C083851882851983121DD3C3EA9C33
:101DA000EB9D5010C3EC98ED99401BC3EA98EB995A
:101DB0005014800EC3EA98EB994007C3EC98ED9954
:101DC0004004790180027900D083D08222F582E438
:101DD0003FF583E0F8A3E0F922EAC39CFAEB9DFB10
:101DE0002274EF12194690050CE064086005E06467
:101DF00007702A9061C8E0602490053AE0F4601D05
:101E0000E0F875F00AA4C8AAF02AF9743C28FE7418
:101E10000539FF8E828F83A3A3A3E07003021EEF18
:101E2000906060E0C0E0EE2468F582E43FF583D086
:101E3000E0F0750CB6750D06750800750900E5D95A
:101E400014F50AE5D95403F50E60127403650E60AB
:101E500043E50A600AEE2467121F6A7002807590DB
:101E600006B1E06401601F121F6760047A048002FB
:101E70007A00E50AC39AFA95E0FB120B308A088BC8
:101E800009EA45097005120EBA8064121F677004D2
:101E90008A0C8B0DE50A6012850C82850D83F50B8B
:101EA000E5D9F0A3150BE50B70F6121F67604474BB
:101EB000FC250AF50A780C121AEDAC0AA90EEEFA06
:101EC000EFFB120D4C7402121880E97026AA08ABC1
:101ED0000912134C793D8E828F83A3A3A3A3E0FA4A
:101EE0007B00120992EEFAEFFB120CB6120D5E792E
:101EF00000806F7403650E6051850A1075110078BB
:101F000010121AEDAC0CAD0DAA08AB09120D10742D
:101F100002121880EE2468121F6A64807004747FB5
:101F20008001E0F50C780C121AF1E50EF50C780C36
:101F3000121AF1A90AAC08AD0990053AE0FA7B0043
:101F40001209687402121880801390050CE064086E
:101F5000600BAC0CAD0DEEFAEFFB120DD0120EC6FD
:101F600079017F0A0219F2EE2482F582E43FF583BB
:101F7000E02274F212194674FC12186AEAFEEBFFB2
:101F80008909A2AFE433F508C2AF02202EE0601B3E
:101F9000780C121AEDAC0BA90EEEFAEFFB120D46FF
:101FA00074021218807404250BF50B7401250BF5CF
:101FB000D9850ED9E50B6018F50A850C82850D834D
:101FC000E0F5D9A385820C85830D150AE50A70EA30
:101FD00075E195EE2463F8E43FF97A007B00A2AF47
:101FE000E433F50BC2AF122109EC4D6032888289CF
:101FF00083E0FAA3E0FB8A828B8312210D88828919
:1020000083ECF0A3EDF08A828B83E4F0A3F012213D
:1020100009EC4D700A88828983A3A3E4F0A3F0E55C
:102020000BA2E092AF12134C90064DE004F0EE24A8
:1020300063121DCDE8496064EE2463121F6A240216
:10204000F8A3E03400F988828983E5822402F50C44
:10205000E43583F50DE0F50BA3E0F50EEE246212F6
:102060001F6A640170369061D0E0F8121F67600447
:102070007C0480027C007480C398FA95E0FBE50B39
:102080002CF8E43400F9E82402F8500109C3EA9876
:10209000EB99A2D265D0334003021F8D90064DE02C
:1020A000604D90064EE0F890064DE0C398500C74D9
:1020B000026509703A90064FE060348E828F83A3E8
:1020C000A3A3A3E08518828519831220FF7402124E
:1020D00018B6E81220FF90064CE028F0740212189F
:1020E000D0AA18AB1979011209BC90064DE4F0E5AD
:1020F00008A2E092AF74041218807F070219F2F070
:10210000A3E4F090064DE0F82288828983E0FCA3E6
:10211000E0FD22008521878522C622C0E074EB12F3
:102120001A32A2AFE433F508C2AF759B009061820A
:10213000E0A2E05030E591A2E0502A7591FE7401D2
:10214000652170211222AE120E1212229C121B0067
:102150001224657404121880E96401700579011273
:102160000E4E121DE1906182E0A2E5505DE591A264
:10217000E550577591DF90050CE064076005E06459
:1021800008702F1222AE74016521703E120E1212D9
:10219000229C121B001224657404121880E9640149
:1021A00070057901120E4E7901EEFAEFFB121F72E3
:1021B0008018E0640D701390052EE004F064287020
:1021C00002E4F07A00E0F9120ECC906182E0A2E61F
:1021D0004003022271E591A2E6400302227175914B
:1021E000BF90050CE064057008120DFA120E06800F
:1021F00003120E00752100120E5AE990050DF079B8
:1022000000120E4E120BFC7A017B0090050BE0F9D8
:10221000121316907803E0644270569006B5E014ED
:10222000F0704EC2AF12222800782AD0E0F618D003
:10223000E0F6E59F5407F87005750DFF8003750DF6
:102240007FC4C0E07829E6F50A08E6550DF50B7461
:102250000B780A121848D0E0250AF8906270E0A2C4
:10226000E740F8E8C333906272F0906270E0D2E029
:10227000F0906181E0A2E35009E5E9A2E350037523
:10228000E9F7A3E0A2E75009E591A2E750037591B1
:102290007FE508A2E092AF7F08021A918E828F83B9
:1022A000E0F8A3E0C82416F582E438F5832290050F
:1022B0003AE0F875F00AA4C8AAF02AF9743C28FE9E
:1022C000740539FF22C0E0C0D0C082C08390618312
:1022D000E0A2E05009E5BFA2E0500375BFFEE0A216
:1022E000E15009E5BFA2E1500375BFFDE0A2E25055
:1022F00009E5BFA2E2500375BFFBE0A2E35009E588
:10230000BFA2E3500375BFF7E0A2E45009E5BFA206
:10231000E4500375BFEFE0A2E55009E5BFA2E55028
:102320000375BFDFE0A2E65009E5BFA2E6500375E2
:10233000BFBFD083D082D0D0D0E032C0E074F212E0
:102340001A32E5A7A2E6500FE5A1A2E6500953A76D
:10235000BF75A1BF12238FE5A7A2E5500CE5A1A28E
:10236000E5500653A7DF75A1DFE5A7A2E15009E517
:10237000A1A2E1500375A1FDE5A7A2E2500CE5A1E1
:10238000A2E2500653A7FB75A1FB7F01021A9174CC
:10239000F712194675210190050CE06406701512BC
:1023A0000D828A828B83A3A3A3A3A3A3E0FAA3E055
:1023B000FB120DE8A2AFE433FED2AF900512E06449
:1023C0000170187A207B0090050BE0F912143C7A1A
:1023D000207B0090050BE0F912131C906182E0D283
:1023E000E6F09006B2E0602185C6228016900511C5
:1023F000E064017008E5C654F84405F5C653BEFC18
:102400001221147401652160E4EEA2E092AF7F0214
:102410000219F2008E238F24858228858327851850
:1024200082851983E0CEA3E0CF852882852783EBC0
:10243000C9EAC8EDCBECCA75F010C3E833C8E9337C
:10244000C9EA33CAEB33CBC3EA9EF526EB9FF525E9
:10245000B35004AB25AA26EC33CCED33CDD5F0DA5E
:10246000AE23AF242274F11219468A088B098C0A14
:102470008D0B9081F57808121708740F1218B67832
:102480000C12172E9081F5780C1217087808790C29
:102490001215419081A950107808790C1216E07835
:1024A000081215614014800E780C79081216E07835
:1024B0000C12156150047901800279007F0802191D
:1024C000F274ED1219468A088B098C0A8D0B9081E3
:1024D000F5780812170874131218B6780C12172E14
:1024E0009081F5780C121708780C79081215414084
:1024F000117808790C1216E0AA08AB09AC0AAD0BEA
:102500008022751000751100751200751301781086
:10251000790C1216E0781079081216A7AA10AB11E0
:10252000AC12AD137F0C0219F29081F578081217E6
:102530002E8A828B83780812171B7F040219F2748B
:10254000F51219468C828D83780812172E8A828B99
:102550008378081216F4122597C3E09CF0A3E09D3F
:1025600012258940229081C5780812172E8A828B05
:102570008378081216CD8A828B83A3A3A3A3E024B9
:1025800020F0A3E0344EF080A0F088828983C3E07D
:102590009420A3E0944E22EA2404F8E43BF98C82D0
:1025A0008D83A3A3A3A3E0FCA3E0FD8882898322FB
:1025B00074F5121946E9FE900668E0FAA3E0FBEE16
:1025C00029F8E433F9741C28F582748139F583E025
:1025D0002AF508A3E03BF5097808121AED9081E589
:1025E00012174C12241474021218808A088B098C5A
:1025F0000A8D0B7410780812166FAA08AB097F04B5
:102600000219F274F11219468A0C8B0D8C0E8D0F83
:1026100074111218B6121B0474111218B6E02401BA
:10262000F508A3E03400F509E4F50AF50B780C7918
:10263000081215809081B5780812172E780C790849
:10264000121580AA0CAB0DAC0EAD0F12241474023F
:102650001218808B09EA450960047A0180027A0029
:10266000EC2AFCE43DFD74131218B6E0F8A3E0F97F
:10267000E8FEE9FFECF8EDF97A717B021217DF88CA
:10268000088909E4F50AF50B8E828F837808121702
:102690003DECF8EDF97A717B021217DF8A088B099D
:1026A000740578081218578E828F83A3A3A3A3E51D
:1026B00008F0A3E509F07F080219F2C082C083E99F
:1026C000906000F0D083D08222C0E074F2121A32FF
:1026D000A2AFE433FED2AFC2C0E5D1A2E45006758A
:1026E000D10F12128CEEF8EEA2E092AF7F01021A27
:1026F00091C0E0C0D0E8C0E0E9C0E0A2AFE433F8A8
:10270000D2AFC2C7E8F9E8A2E092AFD0E0F9D0E0DA
:10271000F8D0D0D0E032C0E0C0D0E8C0E0E9C0E0FE
:10272000EAC0E0C082C083A2AFE433FAD2AF900C1B
:102730002EE0F8900C2FE068700B539AFB900C3051
:102740007401F0802CC2E9900C2EE0F874012890FE
:102750000C2EF0790074AE28F582740B39F583E005
:10276000F5C1900C2EE0C394804006900C2E7400AE
:10277000F0EAF8EAA2E092AFD083D082D0E0FAD0BB
:10278000E0F9D0E0F8D0D0D0E032C2AF02000022B1
:10279000FFFFFFFFFFFFFFFFD083D08202011F7406
:1027A000F61218DAE990047EF09004DEE0F5087580
:1027B000090074027808121857AA08AB091213947A
:1027C00090047F12315290047F12353F606F900465
:1027D000DEE075F003A4FAABF012139490049C129F
:1027E000315290049C12353F700B90047F123510CB
:1027F00012139A804890049C1244A47AFF7BFF1223
:1028000011C07A0080198A087509007402780812CC
:102810001857123F4C74FF122952E4F0A3F00A90AB
:1028200004DEE0F8EAC39840DD790512084E900412
:102830007EE0F91207407AD87B08120AD0023FEFF7
:1028400074F41218DA8A088B09EB548060479004FC
:102850007EE0F91212FE8A0A8B0BAE0AAF0BEE4F26
:10286000602A8E828F83E064B0701A120860E9607B
:10287000148E828F83A3A3A3A3E0F9EE2405FAE4C8
:102880003FFB120836EEFAEFFB1212ECAA08E5093C
:102890006480FB80047A007B00022AA274F2121882
:1028A000DA74FB12186AEAFEEBFFEE4F6045740320
:1028B0001218B6EEF0A3EFF0851882851983ECF0BC
:1028C000A3EDF074021218B6E9F0AA18AB191207BA
:1028D0003AE9F508707574131218B6E0F50AA3E02A
:1028E000F50BE50A450B60638E828F83122EDBEEBB
:1028F0004F700575080280537A067B001213948A84
:102900000C8B0DA80CA90DE8497005750813803BC8
:1029100088828983E4122952EEF0A3EF122A6EE531
:102920000AF0A3E50BF0900482122A6790048260FB
:1029300017E0FCA3E08003EAFCEBFD8C828D8312A0
:102940002A6770F38C828D83123B67A90874050295
:102950004724F0A3124486A32274F21218DA8908DD
:10296000890C750D007403780C121857850C0A85B4
:102970000D0B900481F090047F123972122A656069
:102980002E12139A7900801D890C750D007402783F
:102990000C12185790047F123E0B8882F583A3A374
:1029A000E4F0A3F0099004DEE0F8E9C39840D99080
:1029B00004DEE0FA850AF0A4CAA8F0850BF0A4288A
:1029C000FB1213948A0C8B0DAE0CAF0DEE4F7003FF
:1029D000022A5B9004DEE0FC850AF0A4CCA8F08516
:1029E0000BF0A428FD79001212DA7C0080318D0CE6
:1029F000750D007403780C1218578A828B83122A83
:102A00006088828983E4F0122A6DA3A3F0A3F00DFD
:102A1000EDC3950840D8EE250AFEEF350BFF0C906C
:102A200004DEE0F8ECC39850288C0C750D0074029D
:102A3000780C12185790047F122A60E82402500183
:102A400009FAE9FB8A828B83EEF0A3EFF07D008028
:102A5000BFE508900481F0790080027913024727CE
:102A6000123E0FF922A3A3123514EA4B22A31244FB
:102A700086A3A3A32274F41218DA7900EAA2E05024
:102A80001F7508727509817808121AED79107C0497
:102A90007D007A3C7B1C1208487402121880E9F908
:102AA00080007F040219ACC082C08390048212357A
:102AB0003F601C88828983A3A3E06A7003A3E06B54
:102AC0008882898370E8A3A3A3A312351080047AB7
:102AD000007B0002279874F21218DA74FD12186A4B
:102AE000EAFEEBFF851882851983E4F0A3F07402F7
:102AF0001218B67401F012353C7014120A0A12133F
:102B00009490048512315212353C7003022C6812E5
:102B10003252EE2404F50AE43FF50B850A82F58370
:102B2000E024FE603C24FC607424FE607E24FE7081
:102B300003022BB824FE7003022BC524FE7003028F
:102B40002BD224FE7003022BDF24FE7003022BEC39
:102B500024FC7003022C0D24FE7003022C25022C91
:102B600061120A0A900487EAF0A3EB122C74120493
:102B700076E96003022C61900487121B048E828F19
:102B800083A3A3A3A3A31244A48508828509831267
:102B9000351012081E7402121880022C61AC18AD98
:102BA00019EEFAEFFB120866022C30AC18AD19EEE4
:102BB000FAEFFB12086C8078AC18AD19EEFAEFFB57
:102BC000120872806BAC18AD19EEFAEFFB120878A0
:102BD000805EAC18AD19EEFAEFFB12087E8051ACA6
:102BE00018AD19EEFAEFFB12088480447402121833
:102BF000C0880C890D780C121AED74021218D0EEF0
:102C0000FAEFFB12088A74021218808023AC18AD08
:102C100019EEFAEFFB120890E9F870167402121818
:102C2000B6E4F0803CAC18AD19EEFAEFFB12089652
:102C3000E9F8E8602C8E828F83A3E064146022851B
:102C40000A82850B83E0900487F0851882851983BA
:102C5000123510900488123152E8A3122C74120419
:102C600070EEFAEFFB1207F474021218B6E0F97472
:102C700003024724F07C877D04850882850983123E
:102C800035142274E81218DA74FA12186A740412ED
:102C900018B6ECF0A3EDF08A128B13EA2405F50EBA
:102CA000E43513F50FEA2402F510E43513F5118528
:102CB0001082F5831235101205668A0A8B0B75088F
:102CC000007C037D0079007A877B041212DAE50E1E
:102CD0002402F516E4350FF51774021218C0880C9B
:102CE000890D780C121AED850E82850F83A3A3A39C
:102CF000A3E0F50C750D00780C121AEDE50E240515
:102D0000F50CE4350FF50D780C121AED8516828559
:102D1000178312381712075874061218808A0C8B02
:102D20000DE50C450D7003022EA4802085188285C8
:102D30001983E088828983F00508851882851983C4
:102D4000A3E0C0E0122EE5D0E0F00508E50A24FB80
:102D5000FAE50B34FFFBC3E5089AE49B4003022E1F
:102D6000A47E007F00851282851383A3A3A3A3E022
:102D7000F5097809121AF1E4F514F5157814121A08
:102D8000ED7514847515047814121AED90048512EB
:102D90001B0474091218B6121B04E50A24F9F9ACD5
:102DA0000CAD0D8510828511831235101208C07488
:102DB00009121880E96003022E45850E82850F8373
:102DC000A3A3A3A3A3A3A3E0F8900484E068707571
:102DD000E0F5148E157814121AED1244A1850E82B6
:102DE000850F83A3A3A3A3A3A3A3A3123510121239
:102DF000D47402121880E9604C90048812353F7038
:102E00003BE4F5147814121AED7CFF7DFF790785F9
:102E10001082851183123510120830740212188046
:102E20001235457017850E82850F8312463E740455
:102E30001218B6123EFF123848022ED8850C828531
:102E40000D83122EDBA818A919881489157814127D
:102E50001AED74041218B6121B04851682851783A6
:102E600012314812076474041218808A0C8B0DEE1C
:102E70004F7003022D21122EE5EE122EF01237FEB6
:102E8000EF122EF0F8A3E03400F9E50C450D6003D5
:102E9000022D2C8882898374FFF00508122EE574B8
:102EA000FFF00508E508601A1313543F1231581259
:102EB0000482E9600990048812351012134C7900DD
:102EC0008016850E82850F8312463E74041218B652
:102ED000123EFF123B67790A0237D1A3A3A3A3E0F6
:102EE000FEA3E0FF22A808900488E0281237FE2203
:102EF000F0050808900488E0282274E81218DA74B3
:102F0000FA12186A74021218B612315274041218A6
:102F1000B6ECF0A3EDF074021218B6E024051237F7
:102F2000E7E0F50CA3E0F50D74021218B6E02402F8
:102F3000F510A3E03400F511851082F583123510E9
:102F4000120566750800750900EA24FCFEEB34FFE3
:102F5000FF8008050CE50C7002050DA808C3EE986B
:102F6000EF94005003023104A818A919880E890FA4
:102F7000780E121AED851482851583A3A3A3A312DC
:102F800044A8121AEDE5142405F50EE43515F50FE5
:102F9000780E121AED8514828515831231461207B8
:102FA0005874061218808A0E8B0FEA450F700302C0
:102FB0003104EA2404F516E4350FF517851682F579
:102FC00083E0F50CA3E0F50D851882851983124482
:102FD000A48A828B83A3A3A3E0F985108285118341
:102FE000123510120746E9F5096003023104740234
:102FF0001218B612380EF5097809121AF1E4F51212
:10300000F5137812121AED751284751304781212E2
:103010001AED900485121B0474071218B6121B04D3
:10302000EEF9AC0EAD0F85108285118312351012AA
:1030300008C07409121880E9F5096003023104E53B
:1030400008703FE4F50EF50F780E121AED7CFF7D47
:10305000FF790985108285118312351012083074AA
:1030600002121880123834700D74041218B612311E
:103070003B7911023138900484E02402900488F0F6
:103080008014900488E0FA900484E07900240250CF
:1030900001096A497072A808900484E0FAE82AFAE3
:1030A000E43400FBEE9AEF9B405A85168285178325
:1030B000E0C0E0900489122EEAD0E0F00508851601
:1030C00082851783A3E0C0E008900489122EEAD01D
:1030D000E0F005089004841244A8121AED1244A1ED
:1030E000A8081237DB1212C27402121880900484EE
:1030F000E02508F50874FF650C700474FF650D6029
:1031000003022F53E508601F900488E0F5F0E508FE
:1031100084123158120488E960099004891235102C
:1031200012134C79008011E509700375090A7404C3
:103130001218B612313BA9090237D1123976E50CC3
:10314000F0A3E50DF022A3A3124733AA0CAB0D2286
:10315000A3A3EAF0A3EBF022900487F07C877D0420
:103160008510828511831235142274EC1218DA74DA
:10317000FC12186A123C7774021218D012350A1227
:10318000075E8A0C8B0DEA450D7003023242123243
:1031900052A818A919881089117810121AED7CFF0D
:1031A0007DFF790B8508828509831235101208305E
:1031B0007402121880123348700C850A82850B83C2
:1031C00012384502324F8E828F83A3A3A3A3E0F56A
:1031D000127812121AF1E4F512F5137812121AEDA0
:1031E0007512877513047812121AED7810121AED01
:1031F00074091218B6121B0474091218B6E0F9AC5F
:103200000CAD0D8508828509831235101208C07433
:1032100009121880E9FE70157C877D048508828577
:10322000098312351012048EE97009802074166E1D
:1032300070027E0090048812351012134CEE700458
:10324000800B7E01850A82850B83123B64EEF902B6
:103250003B79EE2402F508E43FF5092274EC1218DC
:10326000DA74FC12186AEAFEEBFF8C0E8D0FEE2466
:1032700005F508E43FF50974021218D08508828527
:10328000098312351012075E8A0C8B0DEA450D700A
:1032900003023338EE2402F50AE43FF50BA818A91F
:1032A00019881089117810121AED7CFF7DFF790DB5
:1032B00012350A1208307402121880123348700B4B
:1032C000850882850983123845807A8E828F83A390
:1032D000A3A3A3E0F5127812121AF18508828509DA
:1032E00083A3A3121B047512877513047812121A94
:1032F000ED7810121AED74091218B6121B04740935
:103300001218B6E0F91235061208C07409121880B6
:10331000E9FE700F7C877D0412350A120494E9706F
:1033200009802074166E70027E0090048812351099
:1033300012134CEE7004800B7E0185088285098390
:10334000123B64EEF9023B7912354FF510A3E0F51C
:1033500011EA45112274E81218DA74FE12186A8A0A
:10336000168B178C148D15EA2405F50CE43517F52A
:103370000DEA2402F50EE43517F50F850E82F5836C
:103380001235101205668A088B09750B007C037DC7
:103390000079007A877B041212DA750A00E50814B6
:1033A000F5100424FFF508E50934FFF50980549071
:1033B0000487E0FA900484E0F8EA28F8E43400F99D
:1033C000E50898E50999500D900487E0F8E510C3E9
:1033D00098900484F0E0F5127513007812121AED3B
:1033E0001244A1900488E02AFAA3E03400FB1212F0
:1033F000C27402121880900484E0F8900487E028D8
:10340000F0050A850C82850D83A3A3123E1B4003A1
:103410000234EB900487E0C39508E4950940030269
:1034200034EBAE0AEE2EFEE433FF12352AAC18ADB3
:10343000191244BCE439FB12075E8A128B13AC12DA
:10344000AD13EC4D701B750B0112351A123B6890D1
:103450000488122A67600312134CA90B7402023706
:10346000D3851682851783A3A3A3A3E0F50B780B5E
:10347000121AF1E4F512F5137812121AED7512848E
:103480007513047812121AED900485121B04740748
:103490001218B6121B04A910850E82850F831235EF
:1034A000101208C07409121880E9F50B709B900483
:1034B0008812353F60030233AFE4F512F51378123A
:1034C000121AED7CFF7DFF790F850E82850F831226
:1034D000351012083074021218801235456003024C
:1034E00033AF12351A12384902345C7C877D04856B
:1034F0000E82850F8312351012049AE9600302349C
:103500004F790002345CAC0CAD0D850A82850B83CB
:1035100012351422E0FAA3E0FB2212352AE0FAA3C6
:10352000E0F9EA85148285158322850C82850D8356
:10353000E02EF8A3E03FF988828983229004851267
:103540004642E8492212354FF8A3E0F9E8492290B3
:103550000488EAF0A3EBF0900488E02274E81218E3
:10356000DA74FA12186A74041218B61231528C16F0
:103570008D1774041218B6E02405F50EA3E034008C
:10358000F50F74041218B6E024021237E712351052
:103590001205668A0A8B0B7F007E00A818A919887D
:1035A0000889097808121AED850E82850F83A3A376
:1035B000A3A3E0F5088E097808121AEDE50E24059C
:1035C000F508E4350FF5097808121AED850E8285A5
:1035D0000F83A3A312381712075874061218808A93
:1035E0000C8B0D8029123808F00F123808F00F905C
:1035F0000484123B53121AED1244A1EFF81237DB88
:103600001212C27402121880900484E02FFFE50C9D
:10361000450D7003023697851882851983123C89FF
:10362000A3A3A3E0F9851482851583123510120730
:1036300046E9FEE50C2404F510E4350DF511EE70B5
:103640005074041218B612380EF5087808121AF1E0
:10365000E4F508F5097808121AED7508847509046F
:103660007808121AED900485121B0474071218B61C
:10367000121B04E50A24FAF9AC0CAD0D8514828501
:1036800015831235101208C07409121880E9FE6003
:1036900039123824123B67EF70030237BE9004885A
:1036A000E0F5F0EF84900487F07C877D0485148238
:1036B0008515831235101204A0E96009900489125F
:1036C000351012134C79000237D18F08EF703BE4AC
:1036D000F512F5137812121AED7CFF7DFF79118532
:1036E0001482851583123510120830740212188066
:1036F00012383470091238241238480237D1900435
:1037000084E02404900488F08035900484E0F890EC
:103710000488E0FAE82404FCE43400FDEC6A4D601F
:103720000302369DE50A24FAFAE50B34FFFBE508AF
:1037300028F8E43400F9EA98EB99500302369D85A5
:103740001082851183E0C0E0900489E02FF8A3E0A7
:1037500034008882F583D0E0F00F851082851183D4
:10376000A3E0C0E01237F5D0E0F00F74021218C0E9
:10377000880889097808121AED74021218B6121B0B
:1037800004850E82850F8312314612076474041279
:1037900018808A0C8B0DEA450D70030235E5740222
:1037A0001218B6E0C0E01237F5D0E0F00F74021244
:1037B00018B6A3E0C0E01237F5D0E00235EDEE70A8
:1037C000027E0A850E82850F8312382A123B67EE2D
:1037D000F974061218807F100219AC900489E02851
:1037E000FAA3E03400FB22F514A3E03400F51585BC
:1037F0001482F583221237F922900489E02FFAA36C
:10380000E034008A82F583221237F974FF221239DC
:1038100076A3A3A3A3E022124733850E82850F83EC
:103820001235142285108285118312464285168234
:1038300085178322900489EAF0A3EBF090048912A3
:103840004642E84922123B6DE8F0A3E9F0791122E3
:1038500074EA1218DA74FE12186A8A088B098C123C
:103860008D13EA2405FEE43509FFAC18AD198E82EC
:103870008F8312351012075E8A0C8B0DEE2406F52D
:103880000EE43FF50FEA450D7003023948E50824C0
:1038900002F50AE43509F50B8A828B83A3A3A3E022
:1038A000A2E550288518828519831235101208B4B4
:1038B0008A108B11EA4511602079121235068510A5
:1038C000828511831218D8E9F50C707F850E8285E8
:1038D0000F83E0600979528011750C0E806D8508A8
:1038E00082850983A3A3A3A3E0F9E4F508F5097889
:1038F00008121AED8E828F83A3A3E0F508780812D0
:103900001AED8E828F83A3A3A3121B048E828F8352
:103910001244A412350A1208C67406121880E9F57A
:103920000C7011850E82850F83E0702D12350A12FE
:1039300004A680257416650C7011750C007418129D
:1039400018B6123972E48010750C0112463A8512CD
:1039500082851383E8F0A3E9F0850E82850F83E06A
:10396000600479008002A90C74021218807F0E0294
:1039700019AC12397622E0F8A3E0F583888222742C
:10398000EC1218DA74F712186A8A0A8B0B8C108DF5
:1039900011EA2405FEE4350BFF750C00AC18AD19D7
:1039A0008E828F8312351012075E8A088B09EA45D2
:1039B000097003023B3EE50A2402F50A5002050B9A
:1039C0008A828B83A3A3A3E0A2E5502F851882856A
:1039D00019831235101208B48A0C8B0DEA450D605C
:1039E0004F7912AC08AD0912350A850C82850D831A
:1039F0001218D8E9F50C6003023B41850A82850B59
:103A000083E0F508A3E0F509AA08FB1208A8EA4B31
:103A100070197AFF7BFF1208A8EA4B7003023B344F
:103A20008A828B83E508F0A3E509F0750800800819
:103A3000750C0E023B410508900481E0F8E508C3CF
:103A4000984003023B3485080E750F007403780E0E
:103A50001218578A828B83A3A3E0250EF8A3E035C2
:103A60000F123F0870D08E828F83123B5C1231524E
:103A70008E828F83A3A3123B5C123150EE2404F597
:103A800008E43FF509850882F583E088828983A3ED
:103A9000A3A3A3F0A3E4F0EE2405F50EE43FF50F95
:103AA000850E82F583123B5CA3A3A3A3123150754C
:103AB00012077513007812121AEDEEFCEFFD740474
:103AC0001218C81212C27402121880E4F512781289
:103AD000121AED850882850983E0FC7D00791712B2
:103AE000350A120830740212188074071218B612C0
:103AF000315274071218B6E0FA4B603D8508828592
:103B00000983123B53121AED850E82850F831244EE
:103B1000A41212C2740212188074021218D0123544
:103B20000A1204ACE9602674071218B61235101296
:103B3000134C8019750C098008750C118003750CE5
:103B40000112463A851082851183123B67A90C74D5
:103B5000098028E0F50875090078082212351488D4
:103B600082898322123B6DE8F0A3E9F022E0F8A3FA
:103B7000E0F9850E82850F832274041218807F0C71
:103B80000219AC74EC1218DA123C77751000EE24AE
:103B900002F50CE43FF50D850C82F5831235101209
:103BA00008A88A088B09EA45097003023C5B850A6C
:103BB00082850B83E064016003023C50AC08AD09D0
:103BC000AA0AAB0B12089CE9606E850882850983FE
:103BD000122EDDEE2406F50AE43FF50B8E828F836C
:103BE000A3A3121B048E828F83A3A3A3A3121B047F
:103BF000850A82850B83121B0479188E828F8312AB
:103C00003C891235101208C67406121880E9F8743F
:103C10001668700B850A82850B83E4F0A38014E894
:103C200060128E828F83123510850E82850F83EA93
:103C3000F0A3EBF088108018780E121AEDAC08ADE6
:103C400009EEFAEFFB1208A27402121880E9F510CF
:103C5000AA08AB091208AEE510700E850C82850D1E
:103C6000831235101204B280097416651070037542
:103C70001000A910023B7EEAFEEBFF8C0E8D0FEECA
:103C80002405F50AE43FF50B22124733850C8285A3
:103C90000D832274EA1218DA7508007509007E0097
:103CA0007F00750A00EC2402F510E43DF511803523
:103CB000EC65087003ED65096003023D4888828960
:103CC00083A3A3E06A7003A3E06B707C888289837E
:103CD000A3A3A3A312463EEE28FEEF39FFEA28FA7B
:103CE000EB39FB050A123E18503A850A0C750D0097
:103CF0007403780C121857851082851183123E0BBD
:103D0000123F08601FE508450970A58C088D0988D9
:103D1000828983122EDB88828983A3A3E02EFAA3F3
:103D2000E03F80BEE50AC394025003023E067508D8
:103D300000750900EE4F6010EEFAEFFB1213468A91
:103D40000E8B0FEA450F70057900023E08750B00D7
:103D5000023DDB850B0C750D007403780C121857AF
:103D6000851082851183E0250CF50CA3E0350DF557
:103D70000DE50C2406F514E4350DF515851482F5D2
:103D800083123F0D6042E50C2404F512E4350DF575
:103D900013851282F583121B04E50E2508FAE50F40
:103DA0003509FB1212C27402121880851282851323
:103DB00083E02508F508A3E03509F5098514828517
:103DC000158312351012134CE50B600D7C087D0035
:103DD0007900AA0CAB0D1212DA050BE50BC3950A9C
:103DE0005003023D5385108285118312463E88821E
:103DF0008983A3A3A3A3A3A3E50EF0A3E50F122A2F
:103E00006EEEF0A3EFF0790102396D123E0F22E061
:103E1000250CF8A3E0350D22900481E0F8E50AC3F3
:103E2000982274F01218DA8A0E8B0F8C0A8D0B759B
:103E30000D00750C0080507916EE2406F508E43F5D
:103E4000F5098E828F83A3A3121B048E828F83A316
:103E5000A3A3A3121B04850882850983121B048572
:103E60000E82850F83A3A31235101208C6740612A2
:103E70001880E9F50D7416650D706C85088285094A
:103E800083E4F0A3F0050C900481E0F8E50CC398FE
:103E90005066AA0C8A08750900740378081218572E
:103EA000850A82850B83A3A3123F57E8FEE9FF8EA4
:103EB000828F83123F0D6040EA2401F508E434004C
:103EC000F509900481E065087002E50960148882B4
:103ED0008983A3A3A3A3A3A3A3A312353F600302D3
:103EE0003E377918023E39E9609B12463A74101247
:103EF00018B6123EFF123B67A90D7F080219ACE00D
:103F0000FAA3E0F5838A8222F988828983124733F3
:103F1000EC4D2274F61218DA7C0080010C9004DE5D
:103F2000E0F8ECC398501E8C0875090074027808FC
:103F3000121857123F4CE06A7003A3E06B70DDE883
:103F4000FAE9FB80047A007B00023FEF90047F12C5
:103F50003F578882898322E02508F8A3E03509F9D4
:103F60002274F21218DA8A088B09750A0080278EEB
:103F7000828F83A3A3A3A3122A65600312134C7C30
:103F8000087D007900EEFAEFFB1212DA8E828F8341
:103F9000E4F0A3F0050A123E185027850A0C750DAF
:103FA000007403780C121857850882850983A3A32F
:103FB000E0250CFEA3E0350DFF8E828F8312353F86
:103FC00070AD85088285098374FFF0A3F00247274E
:103FD00074F61218DA12085A8A828B83E5824583B6
:103FE00070067A007B008007A3A3A3A31235107F7D
:103FF000020219AC74F41218DA89088C828D83E0FD
:104000006402703C1245DDFEA3E0F9EEF87402682C
:1040100070037429697029750A02750B00780A12F9
:104020001AED74101218B6121B0474101218B6127E
:104030001B04A9081211D27406121880E9F9800233
:104040007901022AA274E81218DA74FB12186AE9DC
:10405000851882851983F08A168B17ECFEEDFF75A3
:1040600010008E828F83A3A3A3E0A2E4502D741DC1
:104070001218B61235101208B48A828B83E5824575
:1040800083700302447C790AEEFCEFFDAA16AB179D
:104090001218D8E9F510600302447F741F1218B695
:1040A000E0F508A3E0F50974211218B6E0F50AA3BB
:1040B000E0F50B74231218B6E0F50EA3E0F50F8EB1
:1040C000828F83E06402600302441DA312463E8592
:1040D0000882850983A3858212858313EE2406F561
:1040E0000CE43FF50D888289831244BCF514E43951
:1040F000F5157814121B770100002801281F4107CD
:10410000000228E441032852410029134301293EBB
:10411000430229DF42032913430429B7431D44E521
:104120000E450F6003024418850C82850D831246EC
:104130003EE8FAE9FB8A828B83E0850A82850B835D
:104140001244C7121AED8A828B83A3E0FCA3E0021B
:1041500043A1E50E450F6003024418850A82850BD2
:10416000837401F01244B1850882850983F07C00D4
:104170007D008E828F83A3A3A3A3E02401FAA3E092
:104180003400FB12075EEA4B60408A828B83E02496
:1041900002F8850A82850B83E028F0EA2404F8E41B
:1041A0003BF988828983E08512828513831244D586
:1041B0001244C7121AED8A828B83A31244A4E50825
:1041C0002403FAE43509FB0243A6850A82850B83A2
:1041D000E02404F07C047D007900AA12AB131212D3
:1041E000DA02447FE50E450F60030244181244B121
:1041F000FEA3E0FF850A82850B837404F0EE850838
:1042000082850983F0EF851282851383F07403128F
:1042100018D0EEFAEFFB12075E8A0C8B0DEA450D03
:1042200070030242C28A828B83A3A3122EDB740125
:104230001218C0880E890F780E121AED7405121824
:10424000B6121B047CFF7DFF1207647404121880F1
:104250008B0FEA450F7033850C82850D831244A8BD
:10426000121AED850C82850D83A3121B047C027D3E
:10427000007A177B821205547404121880E9700AC0
:1042800074011218B674FFF0A3F08E828F83E0647D
:10429000027039750C02750D00780C121AED8E82C1
:1042A0008F83A31244A4E5082404FAE43509FB1221
:1042B00012C27402121880850A82850B83E02402E0
:1042C000800974011218B6EEF0A3EFF07401121811
:1042D000B612449674011218B612448D024412E5C7
:1042E0000E450F6003024418850C82850D8312472A
:1042F0002CAA16AB171211D8850A82850B8374027B
:10430000F0850882850983EAF0851282851383EBA4
:10431000024415E50E450F60030244181244B1F83B
:10432000A3E0F9850A82850B837402F0E885088290
:10433000850983F0E9851282851383024415850C73
:1043400082850D831235101212BCEAFAF8C3950E5D
:10435000E4950F405CE8650E450F70047A008021FB
:10436000851882851983E0FCE50E2CFCE4350FFDF1
:10437000C3EC98ED94005003E08005E50ECAC39AA3
:10438000FAEA850A82850B83F08A0A750B00780A9F
:10439000121AED850C82850D83E0250EFCA3E03515
:1043A0000FFDAA08AB091212C2740212188002444F
:1043B0007F75100702447FE50E450F705B850C8208
:1043C000850D8312463E850A82850B837407F0882B
:1043D00082898312448E124486E08512828513837B
:1043E000F0E82402FAE439FB8A828B831244968A2D
:1043F000828B8312448DA3A3122A6D12449BF0E892
:104400002405F85001098882898312449BA3124431
:10441000D5A3A3A3A3F0806775100B8062741D124F
:1044200018B612351012085A8A828B83E5824583AA
:10443000604A12463E880C890DE8450D603E7425A1
:104440001218B6E0F5107810121AF1780E121AED63
:10445000780A121AED7808121AED74071218B6E0ED
:10446000F9EEFCEFFDAA16AB17850C82850D8312C1
:1044700018D87407121880E9F510800375100EA97A
:104480001074050237D3F088828983A322A3E085C4
:104490000882850983221244DCF0221244DCA3A3A3
:1044A0002290048512473322E0F50E750F00780E36
:1044B00022850C82850D83123976E022E0FAA3E092
:1044C000F8E4C8F9EA2822F08A828B83E0F50A75BD
:1044D0000B00780A221244861244DC22E08508820E
:1044E000850983A3A32274EE1218DA74FE12186AE7
:1044F0008A088B09ECFEEDFF890AAC18AD19EEFABB
:10450000EFFB12075E8A0C8B0DEA450D7003024526
:10451000CE85188285198312351012085A8A828B2B
:1045200083E582458370030245C9A3A312463E88F2
:104530000E890FE8450F70030245C974141218B6AE
:10454000E0F510A3E0F511E50AF50B780B121AF16E
:1045500074191218B6121B047810121AED741B127B
:1045600018B6E0F9AC0CAD0DAA08AB09850E828532
:104570000F831218D87405121880E9F50B70527465
:10458000FE650A604C850C82850D83E064027041F3
:104590001245DDFAA3E0F9EAF874026870037429A1
:1045A00069702E8510828511831244BCF50CE439A4
:1045B000F50D780C121AEDEEFCEFFDAA08AB09120E
:1045C00008DE74021218808008750B0E8003750BCC
:1045D00001A90B74021218807F0A0219ACA31246BB
:1045E0004288828983E02274F61218DA74FE121867
:1045F0006A740C1218B612463EE885188285198333
:10460000F074011218B6E9F0E4F508F5097808121B
:104610001AED7508027808121AED74041218C08891
:104620000889097808121AED79FE1208C674061274
:1046300018807402121880023FEF8E828F83124618
:104640004222E0F8A3E0F92274F71218DAEAFEEB4E
:10465000FF890890049C1244A41211D8EA54026005
:104660000BA908EEFAEFFB120752800279017F01D5
:104670000219AC74F21218DA74FE12186AEAFEEB30
:10468000FF890A7401650A60147402650A600302F6
:1046900047227901120AEEE96003024722EEFAEF9F
:1046A000FB1208A8EA4B60031208AEA818A91988E3
:1046B0000889097808121AED75080275090078084A
:1046C000121AED75082F7509827808121AED7CFF11
:1046D0007DFF7A017B00120758740612188080381B
:1046E000850882850983A3A3A3A3A3A312472CEE65
:1046F000FAEFFB1211C0E4F50CF50D780C121AED6F
:1047000074021218B6121B047CFF7DFFAA08AB09C5
:1047100012076474041218808A088B09E508450999
:1047200070BE74021218807F060219AC123976121C
:10473000473322E0FCA3E0FD2274F41218DA8A0861
:104740008B09ECFEEDFF901C3AE0F4604B7A097B9C
:10475000001212E6EA4B60408A828B8374B1F0A3A8
:10476000E412479BF08A828B83A3A3E508F0A3E5BC
:104770000912479BA3EEF0A3EFF0740C1218B612C7
:10478000463E8A828B83A3A3A3A3A3A3A3123B6762
:10479000901C3AE0F91212F2022AA2F08A828B836C
:1047A000A3A3A3A32274EC1218DA74DA12186A898C
:1047B0000D8A128B138C0A8D0B743A1218B6E0F521
:1047C0000C90818AAC18AD19740612177DAC18AD27
:1047D00019AA12AB13A90D1210F4E9FEEEC3940A44
:1047E0004003024919EEF912112AE9FF901D26E053
:1047F00064027004740180027400F5087808121ACB
:10480000F1AD0CEFFCEEF9AA0AAB0B1211A8740182
:104810001218807C147D00790074121218C81212CC
:10482000DA8A0E8B0F850E08850F0974121218D0C4
:104830007A1075F006EEA42424F912140CE9703CE9
:104840007C1079FF74121218C812133AE9702D7493
:10485000221218B6AC82AD837A0475F006EEA42459
:1048600025F912140CE9F50874121218D0EFA2E021
:10487000E433F9AA0AAB0B1205F6E9F8740612182C
:10488000D07A0C74702EF912140CE9707974061237
:1048900018C812111E750E00E50EC394045067A8C7
:1048A0000E7900E875F003A4C8AAF075F000A42AF8
:1048B000FA75F003E9A42AF974061218B6E58228FD
:1048C000F508E58339F509850882850983E0F8A3B1
:1048D000E0F9E849602C850882850983A3A3E0F507
:1048E000107511007810121AED850882850983E091
:1048F000FCA3E0FDAA0AAB0B1208CC7402121880CC
:10490000E9F8050E8092EFA2E1500E9009C7E0F998
:10491000AA0AAB0B1208D2E9F87404650C700F9068
:104920001D26E064027007AA0AAB0B1211967900EB
:1049300074261218807F0C0219AC74F71218DAEA88
:10494000FEEBFF1206ECE97067900A70E0640170FC
:104950001B12115AE9F508900A707400F07C0A7D68
:104960000079007A717B0A1212DA8039750800E545
:1049700008C3940A502FA8087900747128F582742E
:104980000A39F583E064017018A908121160E9FA88
:10499000A8087900747128F582740A39F5837400C7
:1049A000F0050880CA7950121412E9F5081211486E
:1049B0007F010219AC74F21218DA890BEAFEEBFFE0
:1049C0008C088D09750A0AE50B600C1460091460E7
:1049D00044146064024A5AEEFAEFFB12113CE9F506
:1049E0000AE50AC3940A5072E5084509606C750C23
:1049F00006750D00780C121AEDEEFCEFFDAA08AB5F
:104A0000091212C274021218808A0C8B0D850C8256
:104A1000850D838045EEFAEFFB121136E9F50AE5C4
:104A20000AC3940A5034E5084509602EAA08AB0968
:104A3000A90A121130E98022EEFAEFFB121142E9C5
:104A4000F50AE50AC3940A5011E5084509600BAA66
:104A500008AB09A90A121130E9F8A90A7F06021960
:104A6000AC74F21218DA8A0C8B0DE9FF7E1574FF14
:104A7000650C700474FF650D702A750800E508C3A5
:104A8000940A5014EFFC7A027B00A90812110CE979
:104A900060027E00050880E5EF60627A847B111277
:104AA0000B128059AA0CAB0D120AE28A0A8B0B85F5
:104AB0000A08850B09E508450960407C007D00E592
:104AC000082405FAE43509FB850882850983A3A338
:104AD000A3A3E0F91210F4E9F50AE50AC3940A5019
:104AE0000EEFFC7A027B00A90A12110CE97E00EF9E
:104AF000600BAA08AB0912118480027E14EEF97FC4
:104B0000060219AC74EE1218DA8A0E8B0F8C0A8D1D
:104B10000B74121218B6E0F50CA3E0F50D7508152C
:104B200074FF650E700474FF650F701E7E00EEC387
:104B3000940A5061AC0CAD0DAA0AAB0BEEF9121140
:104B400012E960037508000E80E4AA0EAB0F120A8A
:104B5000E28A108B11AE10AF11EE4F60357C007DF4
:104B600000EE2405FAE43FFB8E828F83A3A3A3A368
:104B7000E0F91210F4E9F509E509C3940A5016ACFE
:104B80000CAD0DAA0AAB0BA909121112E9750800A8
:104B90008003750814A9087F0A0219AC74F0121872
:104BA000DA74EC12186A8A0C8B0D850C82850D83E1
:104BB000A3A3E024FA700302501524FD7003024EF3
:104BC0008A147003024C8C14601024FD7003024E92
:104BD00032147003024EC9025028AE0CAF0D90097A
:104BE000E1E0F8A3E0F9E84960669009E1E0F8A3A4
:104BF000E0F5838882E0F8A3E0F9E8496052EE240A
:104C00000CF582E43FF583E0F5087808121AF1EE1E
:104C1000240BF582E43FF583E0F98E828F83A3A312
:104C2000A3A3A3A3A3A3A3E0FCA3E0FDEE2403FAA4
:104C3000E43FFB9009E1E0F8A3E0F5838882E0F827
:104C4000A3E0F58388821218D87401121880803985
:104C50008E828F83A3A3A3A3A3A3A3A3A3121B0446
:104C60009009DD12174C1206087402121880E960D0
:104C70001879018E828F83A3A3A3A3A3A3A3A3A3C5
:104C8000E0FAA3E0FB120602E9025028AE0CAF0DD9
:104C90007508008E828F83A3E06003024DB48E827C
:104CA0008F83A3A3A3A3A3E0A2E04003024DB4908B
:104CB0000A7BE0F8A3E0F9E8496003024DB47C0EFA
:104CC0007D007900AA18AB191212DA8A0A8B0BAA96
:104CD0000AAB0BEE240CF582E43FF583E0F8A3E089
:104CE000F9E8496036750A06750B00780A121AED64
:104CF000EE240CF582E43FF583E02410FCA3E034BD
:104D000000FD74021218C81212C274021218808AAE
:104D10000A8B0B850A82850B83804F8E828F83A33B
:104D2000A3A3E0FAA3E0FB120AE28A0E8B0F850E22
:104D30000A850F0BE50A450B602D750E06750F00F1
:104D4000780E121AEDE50A2405FCE4350BFD740219
:104D50001218C81212C274021218808A0E8B0F85A4
:104D60000E82850F8380030250288E828F83A3A337
:104D7000A3A3A3E0A2E25004D2F08002C2F0A2F00A
:104D8000E433F87900740C1218B6E048F0A3E04957
:104D9000F0EEFCEFFDAA18AB19121124E970127A9B
:104DA000027B009009C7E0F9121316E9790002505E
:104DB0002A7508159009E1E0F8A3E0F9E849606F69
:104DC0009009E1E0F8A3E0F5838882A3A3E0F8A3CB
:104DD000E0F9E84960598E828F83A3E0FC79018E67
:104DE000828F83A3A3A3E0FAA3E0FB9009E1E0F89C
:104DF000A3E0F5838882A3A3E0F8A3E0F58388828B
:104E00001218D8E5086028AC0879038E828F83A336
:104E1000A3A3E0FAA3E0FB9009E1E0F8A3E0F583A7
:104E20008882A3A3E0F8A3E0F58388821218D80251
:104E30005028AE0CAF0D9009E1E0F8A3E0F9E84985
:104E400060459009E1E0F8A3E0F5838882A3A3E040
:104E5000F8A3E0F9E849602F850C82850D83A3E073
:104E6000FC79028E828F83A3A3A3E0FAA3E0FB90D8
:104E700009E1E0F8A3E0F5838882A3A3E0F8A3E0CA
:104E8000F58388821218D8025028AE0CAF0D7C0032
:104E90007D00EE2404FAE43FFB8E828F83A3A3A35C
:104EA000E0F91210F4E9F508E508C3940A5017EE8A
:104EB000240AFCE43FFD7A0475F006E508A42425E5
:104EC000F9121406E9F8025028AE0CAF0D9009DC77
:104ED000E06019901D27E0F98E828F83A3A3A3E0E1
:104EE000FAA3E0FB120602E9F8025028901D26E022
:104EF000701679058E828F83A3A3A3E0FAA3E0FB4B
:104F0000120602E9F80250288E828F83A3A3A3E041
:104F1000FAA3E0FB120AE28A0A8B0B850A08850BCA
:104F200009E508450970030250288E828F83A3A3E8
:104F3000A3A3A3A3A3E0A2E0506D85088285098303
:104F4000A3A3A3A3E060608E828F83A3A3A3A3A3E4
:104F5000A3A3A3A3E0F50AA3E0F50B7409780A1252
:104F60001848E50A5401F8E50B5400F9E8A2E040BE
:104F700036740E1218D0E5082405FAE43509FB85CD
:104F80000882850983A3A3A3A3E0F91210F4E970B2
:104F90001679038E828F83A3A3A3E0FAA3E0FB120A
:104FA0000602E9F8025028EE2405FCE43FFD8508DE
:104FB00082850983A3A3A3A3E0F98E828F83A3A391
:104FC000A3E0FAA3E0FB1211909009E1E0F8A3E05E
:104FD000F9E84960539009E1E0F8A3E0F58388829D
:104FE000A3A3E0F8A3E0F9E849603D7C0079008ED6
:104FF000828F83A3A3A3E0FAA3E0FB9009E1E0F88A
:10500000A3E0F5838882A3A3E0F8A3E0F583888278
:105010001218D88013AE0CAF0D8E828F83A3A3A37A
:10502000E0FAA3E0FB1210EE790174141218807FED
:10503000080219AC74F51218DA74F212186A8909A8
:10504000EAFEEBFF8C0AAC18AD197A0E75F006E596
:1050500009A42420F912140CE9705F7C0679FFAAD8
:1050600018AB1912133AE97051740C1218B6E0F823
:10507000A3E0F9E8F508E50A6005EE42088004EED1
:10508000F45208A8087900740C1218B6E06870038E
:10509000A3E0696021A8087900740C1218B6E8F042
:1050A000A3E9F0AC18AD197A0E75F006E509A42451
:1050B00020F9121406E9790180027900740E1218A1
:1050C000807F030219AC74F01218DA74E612186AC1
:1050D000890B8A0C8B0DECFEEDFF740C1218D07A44
:1050E0000E75F006E50BA42420F912140CE96003F8
:1050F0000251F67C0679FF740C1218C812133AE9B3
:1051000060030251F6AC18AD197A0C7470250BF9D6
:1051100012140CE960030251F2750A00AA18AB19C7
:1051200012111EE50C450D702E7C0C7900AA18ABEF
:105130001912133AE960030251D87C0C7D00790002
:10514000AA18AB191212DA8A088B09850882850918
:1051500083750A010251D8AC18AD19AA0CAB0D1217
:1051600011188A0E8B0F850E08850F09E508450971
:105170007030EE4F601BAC18AD197A007B00121135
:10518000188A0E8B0FA80EA90F88088909E84970A4
:105190000479008063850882850983E50CF0A3E526
:1051A0000DF0850882850983A3A3E0F87900EE68F5
:1051B0007002EF696022EEC0E0850882850983A352
:1051C000A3D0E0F0EE4F700D85088285098374004E
:1051D000F0A37400F0750A01E50A6016AA18AB196D
:1051E00012111EAC18AD197A0C7470250BF912143B
:1051F00006E9790180027900741A1218807F08028A
:1052000019AC74F61218DA8A088B097E00EEC39482
:10521000045050EEF87900E875F003A4C8AAF075C0
:10522000F000A42AFA75F003E9A42AF9EC28F58223
:10523000ED39F583E065087004A3E065097021EE9F
:10524000F87900E875F003A4C8AAF075F000A42A64
:10525000FA75F003E9A42AF9EC28FAED39FB800786
:105260000E80AA7A007B007F020219AC74F7121834
:10527000DA7C00ECC39404400302531BECF8790081
:10528000E875F003A4C8ADF075F000A42DFD75F02D
:1052900003E9A42DF9EA28F582EB39F583E0F4FE61
:1052A000A3E0F4FFECF87900E875F003A4C8ADF0D2
:1052B00075F000A42DFD75F003E9A42DF9EA28F599
:1052C00082EB39F583EEF0A3EFF0ECF87900E875A6
:1052D000F003A4C8ADF075F000A42DFD75F003E94E
:1052E000A42DF9EA28F582EB39F583A3A3E0F4C0F5
:1052F000E0ECF87900E875F003A4C8ADF075F000B3
:10530000A42DFD75F003E9A42DF9EA28F582EB3907
:10531000F583A3A3D0E0F00C0252737F010219AC15
:1053200074F01218DA74F412186AEAFEEBFF8C08B3
:105330008D09900A7BE0F8A3E0F9E849702CEE4F64
:105340006006E5084509700579010255CCEEFAEFD3
:10535000FB12113CE9901D2AF0901D2AE0C3940A2B
:10536000400812114EE9901D2AF0901D2AE0C394C6
:105370000A40030255CA900A7BE0F8A3E0F9E84925
:105380006003025416EEFCEFFD7A0E75F006901DD8
:105390002AE0A42420F9121406E9F50C7C0C7D0007
:1053A00079FFAA18AB191212DA8A0E8B0F850E0A32
:1053B000850F0BAC18AD197A0C901D2AE02470F9FA
:1053C000121406E9F50D750E0E750F00780E121AFF
:1053D000EDEEFCEFFD901D2AE0F87900E875F00E87
:1053E000A4C8AAF075F000A42AFA75F00EE9A42A60
:1053F000F974E328FA740939FB1212C27402121804
:10540000808A0E8B0FA80EA90F900A7BE508F0A3E7
:10541000E509F00255C6900A7BE0F8A3E0C824062F
:10542000F582C83400F583E0F8A3E0F9E849604369
:10543000900A7BE0F8A3E0C82406F582C83400F5A2
:1054400083E0FCA3E0FD7A1B75F006901D2AE0A422
:105450002421F9121406E9F8900A7BE0F9A3E0C9C7
:105460002406F582C93400F5837400F0A37400F0BB
:105470000255C6900A7BE0F8A3E0C8240AF582C86A
:105480003400F583E0F8A3E0F9E8496043900A7B33
:10549000E0F8A3E0C8240AF582C83400F583E0FCF4
:1054A000A3E0FD7A1B75F006901D2AE0A42422F9E2
:1054B000121406E9F8900A7BE0F9A3E0C9240AF582
:1054C00082C93400F5837400F0A37400F00255C65D
:1054D000900A7BE0F8A3E0C8240CF582C83400F5FC
:1054E00083E0F8A3E0F9E8496043900A7BE0F8A381
:1054F000E0C8240CF582C83400F583E0FCA3E0FD8D
:105500007A1075F006901D2AE0A42423F9121406DF
:10551000E9F8900A7BE0F9A3E0C9240CF582C934CC
:1055200000F5837400F0A37400F00255C6900A7B66
:10553000E0F8A3E0C82408F582C83400F583E0F859
:10554000A3E0F9E849606F900A7BE0F8A3E0C82483
:1055500008F582C83400F583E0FCA3E0FD7A1075FD
:10556000F006901D2AE0A42424F9121406E9F50A95
:10557000900A7BE0F8A3E0C82408F582C83400F55F
:1055800083E02410FCA3E03400FD7A0475F006905B
:105590001D2AE0A42425F9121406E9F8900A7BE0FC
:1055A000F9A3E0C92408F582C93400F5837400F03A
:1055B000A37400F08010900A6FE060031211AE1225
:1055C000118A79018006790080027901740C121821
:1055D000807F080219AC74F71218DA74F212186A94
:1055E000E9FEAC18AD197A0E75F006EEA42420F988
:1055F00012140CE9700E740C1218B6E0F8A3E0F95E
:10560000E8F980027900740E1218807F010219AC4B
:1056100074F41218DA74F212186A8909EAFEEBFFC0
:10562000E509C3940A5004EE4F700479028041AC3E
:1056300018AD197A0E75F006E509A42420F91214A4
:105640000CE9F508E5087026750A06750B00780A5E
:10565000121AED74021218D0EEFAEFFB1212C27495
:10566000021218808A0A8B0B850A82850B83A9088F
:10567000740E1218807F040219AC74F41218DAEA5E
:10568000FEEBFF750800E508C3940A5043750A064F
:10569000750B00780A121AEDEEFCEFFDA8087900F0
:1056A000E875F00EA4C8AAF075F000A42AFA75F007
:1056B0000EE9A42AF974E928FA740939FB1212D404
:1056C0007402121880E96004A9088006050880B6F3
:1056D000790A7F040219AC74F41218DAEAFEEBFFBF
:1056E000750800E508C3940A5043750A06750B0057
:1056F000780A121AEDEEFCEFFDA8087900E875F0C3
:105700000EA4C8AAF075F000A42AFA75F00EE9A458
:105710002AF974E328FA740939FB1212D4740212BC
:105720001880E96004A9088006050880B6790A7F18
:10573000040219AC74F71218DA74F012186AEAFE4F
:10574000EBFF750800E508C3940A5039AC18AD1991
:105750007A1075F006E508A42423F912140CE970F8
:10576000207C1079FFAA18AB1912133AE97012EED7
:10577000FCEFFDAA18AB191205D2E97004A9088044
:1057800006050880C0790A74101218807F0102197A
:10579000AC74F41218DA750800E508C3940A4003E3
:1057A00002586BA8087900E875F00EA4C8AAF07535
:1057B000F000A42AFA75F00EE9A42AF974E328FC93
:1057C000740939FD7A0E75F006E508A42420F91253
:1057D000140CE970030258667C067D0079FFAA0864
:1057E0007B00EA75F00EA4CAA8F075F000A428F8B2
:1057F00075F00EEBA428FB74E32AFA74093BFB1244
:1058000012DA8A0A8B0BAE0AAF0B7C067D0079FF99
:10581000AA087B00EA75F00EA4CAA8F075F000A4EF
:1058200028F875F00EEBA428FB74E92AFA74093BFA
:10583000FB1212DA8A0A8B0BAC0AAD0BA8087900AE
:10584000E875F00EA4C8AAF075F000A42AFA75F065
:105850000EE9A42AF974EF28F582740939F58374E6
:1058600000F0A37400F00508025799900A6FE060F9
:10587000031211AE12118A7F040219AC74F71218C8
:10588000DA7E00EEC3940A50327C0679FFEEFA7B92
:1058900000EA75F00EA4CAA8F075F000A428F87507
:1058A000F00EEBA428FB74E32AFA74093BFB1213F5
:1058B0003AE96004EEF980050E80C8790A7F01029A
:1058C00019AC74F71218DA7E007F00EFC3940A5007
:1058D000357C0679FFC9FDC9EFF87900E875F00E4F
:1058E000A4C8AAF075F000A42AFA75F00EE9A42A5B
:1058F000F974E328FA740939FBCDF9CD12133AE9AA
:1059000070010E0F80C5EEF97F010219AC74F71219
:1059100018DA7E007F00EFC3940A500DEE700AEF94
:10592000F9121160E9FE0F80EDEEF97F010219AC6A
:1059300074F01218DA74CB12186A8909901D2AE0E3
:105940006509701D7A017B009009C7E0F912131CEC
:10595000E97A027B009009C7E0F912131CE91211E1
:10596000BA901D2BE0650970137A047B009009C77B
:10597000E0F912131CE9901D2B740AF07427121819
:10598000D07A0E75F006E509A42420F912140CE96A
:105990006003025A837C0679FF74271218C8121319
:1059A0003AE96003025A837C0E7D0079FF74271266
:1059B00018C81212DA8A0A8B0B850A0C850B0D7C2B
:1059C0001B7D0079FF740C1218C81212DA8A0E8B34
:1059D0000F850E0A850F0B7C0C7D0079FFAA18AB92
:1059E000191212DA8A0E8B0FAE0EAF0F742712182F
:1059F000D07A0E75F006E509A42420F9121406E900
:105A0000F508740C1218D07A1B75F006E509A42469
:105A100021F9121406E94208740C1218D07A1B7589
:105A2000F006E509A42422F9121406E94208740CD0
:105A30001218D07A1075F006E509A42423F912147F
:105A400006E94208740C1218D07A1075F006E509C0
:105A5000A42424F9121406E94208740C1218D07A0E
:105A60000475F006E509A42425F9121406E9420894
:105A7000AC18AD197A0C74702509F9121406E942B4
:105A8000088003750800A90874351218807F080281
:105A900019AC74F71218DAE9FEEE9009C7F012118A
:105AA000487A2C7B1D12071C7F010219AC74F2127C
:105AB00018DA890AEAFEEBFFEE5400F8EF5480F999
:105AC000E84960359009C7E0F91212FE8A0C8B0D87
:105AD000A80CA90D88088909E8496012AA08AB0931
:105AE000121172E96008AA08AB091212ECE9EE641F
:105AF00000FAEF6480FB025C30EE5402603E7C00F2
:105B00007D007A007B00121124E960187A017B0085
:105B10009009C7E0F9121316E9EE6402FAEF640087
:105B2000FB025C307A027B009009C7E0F912131681
:105B3000E9EE6402FAEF6400FB025C30EEA2E040A2
